{
  "contractName": "ScheDapp",
  "abi": [
    {
      "anonymous": false,
      "inputs": [
        {
          "indexed": false,
          "internalType": "string",
          "name": "",
          "type": "string"
        },
        {
          "indexed": false,
          "internalType": "uint256",
          "name": "",
          "type": "uint256"
        }
      ],
      "name": "MyLog",
      "type": "event"
    },
    {
      "stateMutability": "payable",
      "type": "receive",
      "payable": true
    },
    {
      "inputs": [
        {
          "internalType": "address payable",
          "name": "_cEtherContract",
          "type": "address"
        }
      ],
      "name": "supplyEthToCompound",
      "outputs": [
        {
          "internalType": "bool",
          "name": "",
          "type": "bool"
        }
      ],
      "stateMutability": "payable",
      "type": "function",
      "payable": true
    },
    {
      "inputs": [
        {
          "internalType": "uint256",
          "name": "amount",
          "type": "uint256"
        },
        {
          "internalType": "bool",
          "name": "redeemType",
          "type": "bool"
        },
        {
          "internalType": "address",
          "name": "_cEtherContract",
          "type": "address"
        }
      ],
      "name": "redeemCEth",
      "outputs": [
        {
          "internalType": "bool",
          "name": "",
          "type": "bool"
        }
      ],
      "stateMutability": "nonpayable",
      "type": "function"
    }
  ],
  "bytecode": "0x608060405266038d7ea4c6800060005534801561001b57600080fd5b506105eb8061002b6000396000f3fe60806040526004361061002d5760003560e01c8063a82ffd8814610039578063c6fb50141461009357610034565b3661003457005b600080fd5b61007b6004803603602081101561004f57600080fd5b81019080803573ffffffffffffffffffffffffffffffffffffffff169060200190929190505050610110565b60405180821515815260200191505060405180910390f35b34801561009f57600080fd5b506100f8600480360360608110156100b657600080fd5b8101908080359060200190929190803515159060200190929190803573ffffffffffffffffffffffffffffffffffffffff1690602001909291905050506103d3565b60405180821515815260200191505060405180910390f35b600080543411610188576040517f08c379a00000000000000000000000000000000000000000000000000000000081526004018080602001828103825260148152602001807f4665652069742773206e6f7420656e6f7567682100000000000000000000000081525060200191505060405180910390fd5b600082905060008173ffffffffffffffffffffffffffffffffffffffff1663bd6d894d6040518163ffffffff1660e01b8152600401602060405180830381600087803b1580156101d757600080fd5b505af11580156101eb573d6000803e3d6000fd5b505050506040513d602081101561020157600080fd5b810190808051906020019092919050505090507f8d1cced004452bd270777a8c670f9f7e7c4fdde56f2db331fe289d39dc2624ad81604051808060200183815260200182810382526023815260200180610593602391396040019250505060405180910390a160008273ffffffffffffffffffffffffffffffffffffffff1663ae9d70b06040518163ffffffff1660e01b8152600401602060405180830381600087803b1580156102b157600080fd5b505af11580156102c5573d6000803e3d6000fd5b505050506040513d60208110156102db57600080fd5b810190808051906020019092919050505090507f8d1cced004452bd270777a8c670f9f7e7c4fdde56f2db331fe289d39dc2624ad816040518080602001838152602001828103825260208152602001807f537570706c7920526174653a20287363616c65642075702062792031653138298152506020019250505060405180910390a18273ffffffffffffffffffffffffffffffffffffffff16631249c58b6000546203d090906040518363ffffffff1660e01b81526004016000604051808303818589803b1580156103ad57600080fd5b5088f11580156103c1573d6000803e3d6000fd5b50505050505060019350505050919050565b600080829050600060011515851515141561047d578173ffffffffffffffffffffffffffffffffffffffff1663db006a75876040518263ffffffff1660e01b815260040180828152602001915050602060405180830381600087803b15801561043b57600080fd5b505af115801561044f573d6000803e3d6000fd5b505050506040513d602081101561046557600080fd5b8101908080519060200190929190505050905061050e565b8173ffffffffffffffffffffffffffffffffffffffff1663852a12e3876040518263ffffffff1660e01b815260040180828152602001915050602060405180830381600087803b1580156104d057600080fd5b505af11580156104e4573d6000803e3d6000fd5b505050506040513d60208110156104fa57600080fd5b810190808051906020019092919050505090505b7f8d1cced004452bd270777a8c670f9f7e7c4fdde56f2db331fe289d39dc2624ad8160405180806020018381526020018281038252602481526020018061056f602491396040019250505060405180910390a1600192505050939250505056fe49662074686973206973206e6f7420302c2074686572652077617320616e206572726f7245786368616e6765205261746520287363616c65642075702062792031653138293a20a26469706673582212208184614e2f1dd2c8b0dd02555535a457ca91bfbec55de62a8e13e1f59a96117264736f6c63430007040033",
  "immutableReferences": {},
  "source": "// SPDX-License-Identifier: MIT\npragma solidity 0.7.4;\n\ninterface Erc20 {\n    function approve(address, uint256) external returns (bool);\n\n    function transfer(address, uint256) external returns (bool);\n}\n\ninterface CEth {\n    function mint() external payable;\n\n    function exchangeRateCurrent() external returns (uint256);\n\n    function supplyRatePerBlock() external returns (uint256);\n\n    function redeem(uint256) external returns (uint256);\n\n    function redeemUnderlying(uint256) external returns (uint256);\n}\n\ncontract ScheDapp {\n    uint256 private fee = 0.001 ether;\n\n    event MyLog(string, uint256);\n\n    function supplyEthToCompound(address payable _cEtherContract)\n        public\n        payable\n        returns (bool)\n    {\n        require(msg.value > fee, \"Fee it's not enough!\");\n        CEth cToken = CEth(_cEtherContract);\n\n        uint256 exchangeRateMantissa = cToken.exchangeRateCurrent();\n        emit MyLog(\"Exchange Rate (scaled up by 1e18): \", exchangeRateMantissa);\n\n        uint256 supplyRateMantissa = cToken.supplyRatePerBlock();\n        emit MyLog(\"Supply Rate: (scaled up by 1e18)\", supplyRateMantissa);\n\n        cToken.mint{value: fee, gas: 250000}();\n        return true;\n    }\n\n    function redeemCEth(\n        uint256 amount,\n        bool redeemType,\n        address _cEtherContract\n    ) public returns (bool) {\n        // Create a reference to the corresponding cToken contract\n        CEth cToken = CEth(_cEtherContract);\n\n        // `amount` is scaled up by 1e18 to avoid decimals\n\n        uint256 redeemResult;\n\n        if (redeemType == true) {\n            // Retrieve your asset based on a cToken amount\n            redeemResult = cToken.redeem(amount);\n        } else {\n            // Retrieve your asset based on an amount of the asset\n            redeemResult = cToken.redeemUnderlying(amount);\n        }\n\n        // Error codes are listed here:\n        // https://compound.finance/docs/ctokens#ctoken-error-codes\n        emit MyLog(\"If this is not 0, there was an error\", redeemResult);\n\n        return true;\n    }\n\n    // This is needed to receive ETH when calling `redeemCEth`\n    receive() external payable {}\n}\n",
  "sourcePath": "/home/kenystev/projects/blockchain/DaoMV/staging-k/contracts/ScheDapp.sol",
  "compiler": {
    "name": "solc",
    "version": "0.7.4+commit.3f05b770.Emscripten.clang"
  },
  "schemaVersion": "3.3.3",
  "updatedAt": "2021-02-12T03:43:12.936Z",
  "networkType": "ethereum",
  "devdoc": {
    "kind": "dev",
    "methods": {},
    "version": 1
  },
  "userdoc": {
    "kind": "user",
    "methods": {},
    "version": 1
  }
}